:100000000C9462000C948A000C948A000C948A0070
:100010000C948A000C948A000C948A000C948A0038
:100020000C948A000C948A000C948A000C948A0028
:100030000C948A000C948A000C948A000C948A0018
:100040000C9438050C948A000C9406050C94E0047A
:100050000C948A000C948A000C948A000C948A00F8
:100060000C948A000C948A000000000024002700F1
:100070002A0000000000250028002B0000000000DE
:1000800023002600290004040404040404040202DA
:100090000202020203030303030301020408102007
:1000A0004080010204081020010204081020000012
:1000B0000008000201000003040700000000000027
:1000C0000000820511241FBECFEFD8E0DEBFCDBFF8
:1000D00011E0A0E0B1E0E0E5F7E102C005900D928B
:1000E000AA38B107D9F722E0AAE8B1E001C01D9211
:1000F000A935B207E1F710E0C2E6D0E004C02197CD
:10010000FE010E947B0AC136D107C9F70E94DF05B4
:100110000C94A60B0C940000AF92BF92CF92DF928A
:10012000EF92FF920F931F93CF93DF936C017B01AC
:100130008B01040F151FEB015E01AE18BF08C0173D
:10014000D10759F06991D601ED91FC910190F081B0
:10015000E02DC6010995892B79F7C501DF91CF9173
:100160001F910F91FF90EF90DF90CF90BF90AF90D5
:100170000895FC01538D448D252F30E0842F90E0AD
:10018000821B930B541710F0CF9608950197089592
:10019000FC01918D828D981761F0A28DAE0FBF2F5B
:1001A000B11D5D968C91928D9F5F9F73928F90E0B1
:1001B00008958FEF9FEF0895FC01918D828D981720
:1001C00031F0828DE80FF11D858D90E008958FEF5D
:1001D0009FEF0895FC01918D228D892F90E0805C26
:1001E0009F4F821B91098F739927089583E991E0AE
:1001F0000E94EA0021E0892B09F420E0822F089573
:1002000080E090E0892B29F00E94F60081110C9487
:1002100000000895FC01A48DA80FB92FB11DA35AA9
:10022000BF4F2C91848D90E001968F739927848F16
:10023000A689B7892C93A089B1898C918370806439
:100240008C93938D848D981306C00288F389E02DDA
:1002500080818F7D80830895EF92FF920F931F938B
:10026000CF93DF93EC0181E0888F9B8D8C8D981369
:100270001AC0E889F989808185FF15C09FB7F89475
:10028000EE89FF896083E889F989808183708064C1
:1002900080839FBF81E090E0DF91CF911F910F910C
:1002A000FF90EF900895F62E0B8D10E00F5F1F4F1B
:1002B0000F731127E02E8C8D8E110CC00FB607FC2A
:1002C000FACFE889F989808185FFF5CFCE010E94B8
:1002D0000A01F1CFEB8DEC0FFD2FF11DE35AFF4F1B
:1002E000F0829FB7F8940B8FEA89FB898081806246
:1002F000CFCFCF93DF93EC01888D8823B9F0AA8903
:10030000BB89E889F9898C9185FD03C0808186FDD0
:100310000DC00FB607FCF7CF8C9185FFF2CF80811F
:1003200085FFEDCFCE010E940A01E9CFDF91CF9189
:100330000895833081F028F4813099F08230A9F05B
:1003400008958730A9F08830C9F08430B1F48091E5
:1003500080008F7D03C0809180008F778093800024
:10036000089584B58F7784BD089584B58F7DFBCFC4
:100370008091B0008F778093B00008958091B00095
:100380008F7DF9CFCF93DF93282F30E0F901E2552D
:10039000FF4F8491F901E656FF4FD491F901EA57D6
:1003A000FF4FC491CC23A1F081110E949901EC2F41
:1003B000F0E0EE0FFF1FE458FF4FA591B491EC91D0
:1003C000ED2381E090E009F480E0DF91CF91089582
:1003D00080E090E0FACF1F93CF93DF93282F30E097
:1003E000F901E255FF4F8491F901E656FF4FD49190
:1003F000F901EA57FF4FC491CC23A9F0162F8111C0
:100400000E949901EC2FF0E0EE0FFF1FEE58FF4F16
:10041000A591B4918FB7F894EC91111108C0D095C3
:10042000DE23DC938FBFDF91CF911F910895DE2BE8
:10043000F8CFCF93DF9390E0FC01E656FF4F249175
:100440008A579F4FFC0184918823D1F090E0880F58
:10045000991FFC01E859FF4FA591B491FC01EE589A
:10046000FF4FC591D491623071F49FB7F8943C91DD
:10047000822F809583238C93E8812E2B28839FBF26
:10048000DF91CF9108958FB7F894EC912E2B2C9398
:100490008FBFF6CF3FB7F89480918F019091900174
:1004A000A0919101B091920126B5A89B05C02F3F64
:1004B00019F00196A11DB11D3FBFBA2FA92F982F8A
:1004C0008827BC01CD01620F711D811D911D42E085
:1004D000660F771F881F991F4A95D1F708958F924D
:1004E0009F92AF92BF92CF92DF92EF92FF926B01F9
:1004F0007C010E944A024B015C01C114D104E10459
:10050000F104B9F00E944A02681979098A099B0925
:10051000683E73408105910580F321E0C21AD1083D
:10052000E108F10888EE880E83E0981EA11CB11C3A
:10053000E4CFFF90EF90DF90CF90BF90AF909F906F
:100540008F900895089590E080E008950895FF92B7
:100550000F931F93CF93DF93F82E062FC7E0D0E0C1
:1005600010E061E0802F0E94EB018F2D0E94C201FC
:100570000C2E01C0880F0A94EAF7182B60E0802F38
:100580000E94EB01219768F7812FDF91CF911F9196
:100590000F91FF900895EF92FF920F931F93CF93C7
:1005A000DF93809133020E94C201892B31F060E019
:1005B00070E0CB010E946F02F4CFDFB7F894609136
:1005C0003202809133020E94A702082F609132020A
:1005D000809133020E94A702C82F6091320280915D
:1005E00033020E94A702182FF12CE12C80913402D3
:1005F0008E151F0479F070F061E0809132020E9444
:10060000EB0160E0809132020E94EB018FEFE81A6B
:10061000F80AECCFDFBF6C2F70E090E080E0982FFD
:10062000872F762F6627802B612B000F000B10E0A1
:1006300030E020E0302F222711270027602B712B7C
:10064000822B932BDF91CF911F910F91FF90EF9011
:100650000895CF93DF93EC0160E08E810E94EB015F
:1006600061E08E810E94EB0160E08E810E94EB01CF
:100670008BE891E00197F1F7DF91CF910895CF9248
:10068000DF92EF92FF920F931F93CF93DF936C0152
:100690007C0187E0E80EF11CD0E0C0E0062F10E0FE
:1006A000B8010C2E02C0759567950A94E2F7617047
:1006B000F70181917F010E94EB012196C430D105A1
:1006C00079F7C601DF91CF911F910F91FF90EF90C5
:1006D000DF90CF900C942903CF92DF92EF92FF929C
:1006E0000F931F93CF93DF93EC01F62E642F8C8131
:1006F0000E94EB018D818F3F19F060E00E94EB01B9
:100700000F2D10E08F8584FF25C06E0187E0C80E95
:10071000D11CF12CE12CB8010E2C02C07595679507
:100720000A94E2F76170F60181916F010E94EB017A
:10073000FFEFEF1AFF0A88E0E816F10461F7CE0137
:10074000DF91CF911F910F91FF90EF90DF90CF90AD
:100750000C942903B80184E0759567958A95E1F7B3
:10076000CE010E943F036F2DCE01DF91CF911F91EB
:100770000F91FF90EF90DF90CF900C943F0340E0FB
:10078000682F8DE392E00C946C03909150026917EE
:1007900010F06FEF690FE62FF0E0E35CFD4F9489F6
:1007A000890F80680C94BF0381E00E94BF038BE334
:1007B0009FE10197F1F70895CF93DF93823029F4F9
:1007C00090914C02986090934C028093500210924A
:1007D000510280E48093520280E18093530280E5CD
:1007E0008093540261E0809141020E94190280913D
:1007F00042028F3F19F061E00E94190261E080918E
:1008000043020E941902CDE3D2E09E012D533240F3
:1008100080914C0284FD0BC084E090E02196281763
:10082000390744F461E08E810E941902EECF88E01E
:1008300090E0F4CF8BE39DE00197F1F760E08091C9
:1008400041020E94EB0160E0809143020E94EB01B3
:10085000809142028F3F19F060E00E94EB0180918D
:100860004C0284FD34C063E08DE392E00E943F03BC
:10087000CBE4D6E4CE010197F1F763E08DE392E09B
:100880000E943F032197F1F763E08DE392E00E941D
:100890003F0383E592E00197F1F762E08DE392E098
:1008A0000E943F0380914C0280620E94BF0384E05B
:1008B00080934D028CE00E94BF030E94D40382E02B
:1008C00080934E0286E0DF91CF910C94BF0380624B
:1008D0000E94BF038BE496E40197F1F780914C02EC
:1008E00080620E94BF0383E592E00197F1F7809157
:1008F0004C0280620E94BF03D5CF41E00E946C038E
:1009000081E090E00895FB0101900020E9F7319724
:10091000AF01461B570BDC01ED91FC910280F38186
:10092000E02D09948F929F92AF92BF92EF92FF9227
:100930000F931F93CF93DF93CDB7DEB7A1970FB679
:10094000F894DEBF0FBECDBF7C01FA01CB0119A226
:10095000223008F42AE08E010F5D1F4F822E912C69
:10096000B12CA12CBF01A50194010E943A0AF90102
:10097000CA016A300CF5605DD8016E938D01232B9E
:10098000242B252B79F790E080E0109721F0BD0112
:10099000C7010E948304A1960FB6F894DEBF0FBE74
:1009A000CDBFDF91CF911F910F91FF90EF90BF903E
:1009B000AF909F908F900895695CDECF0C941D0BD3
:1009C0001F920F920FB60F9211242F933F934F93C4
:1009D0005F936F937F938F939F93AF93BF93EF93A7
:1009E000FF9383E991E00E940A01FF91EF91BF918B
:1009F000AF919F918F917F916F915F914F913F91B7
:100A00002F910F900FBE0F901F9018951F920F926D
:100A10000FB60F9211242F938F939F93EF93FF9311
:100A2000E091A301F091A4018081E091A901F091EE
:100A3000AA0182FD1BC090818091AC018F5F8F73F2
:100A40002091AD01821741F0E091AC01F0E0ED564C
:100A5000FE4F958F8093AC01FF91EF919F918F9105
:100A60002F910F900FBE0F901F9018958081F4CF9B
:100A70001F920F920FB60F9211242F933F938F93D3
:100A80009F93AF93BF9380918B0190918C01A09124
:100A90008D01B0918E0130918A0123E0230F2D3713
:100AA00058F50196A11DB11D20938A0180938B01F9
:100AB00090938C01A0938D01B0938E0180918F0152
:100AC00090919001A0919101B09192010196A11D88
:100AD000B11D80938F0190939001A0939101B093E9
:100AE0009201BF91AF919F918F913F912F910F9064
:100AF0000FBE0F901F90189526E8230F0296A11D98
:100B0000B11DD2CFE3E9F1E01382128288EE93E0C7
:100B1000A0E0B0E084839583A683B7838AE091E068
:100B20009183808385EC90E09587848784EC90E0C6
:100B30009787868780EC90E0918B808B81EC90E0AA
:100B4000938B828B82EC90E0958B848B86EC90E08B
:100B5000978B868B118E128E138E148EEDE3F2E03E
:100B60001382128284E291E09183808386E0848301
:100B70008FEF858387E0868382E0878383E08087A9
:100B800084E0818785E08287138614861586168621
:100B9000178681E00E94DC03E0E3F2E08CE191E063
:100BA00091838083158216821782108680E090E000
:100BB000A0E8BFE381879287A387B48708957894DC
:100BC00084B5826084BD84B5816084BD85B5826052
:100BD00085BD85B5816085BD80916E008160809303
:100BE0006E0010928100809181008260809381006C
:100BF000809181008160809381008091800081607C
:100C0000809380008091B10084608093B1008091D6
:100C1000B00081608093B00080917A0084608093FE
:100C20007A0080917A00826080937A0080917A00C5
:100C3000816080937A0080917A00806880937A0046
:100C40001092C10082E00E94DC03E091A301F091C8
:100C5000A40182E08083E0919F01F091A0011082C5
:100C6000E091A101F091A2018FEC80831092AB0181
:100C7000E091A701F091A80186E08083E091A501B1
:100C8000F091A601808180618083E091A501F091BF
:100C9000A601808188608083E091A501F091A60182
:100CA000808180688083E091A501F091A601808118
:100CB0008F7D80838EE0809332028FE080933302B9
:100CC00061E08EE00E94190262E0809133020E948E
:100CD000190281E0809334020E94D40360E081E035
:100CE0000E94C5036CE271E083E991E00E948304F5
:100CF0000E94CB026B017C012AE0BC01A601F7FE39
:100D00000DC06DE283E991E00E942C014427552734
:100D1000BA014C195D096E097F092AE083E991E067
:100D20000E94920469E471E083E991E00E948304E7
:100D30006CE471E08DE392E00E94830461E080E066
:100D40000E94C50364E571E08DE392E00E94830494
:100D50008CE994E7AEEBB3E48093390290933A02C6
:100D6000A0933B02B0933C02C4E1C12CD12C76018C
:100D70000E94CB02C60ED71EE81EF91E60E070E08E
:100D8000CB010E946F02C15099F7C701B60124E15F
:100D900030E040E050E00E945C0ACA01B9010E94C4
:100DA00013090E94DB08609335027093360280932A
:100DB0003702909338020E94D40360E081E00E94E1
:100DC000C50362E671E08DE392E00E94830468EB64
:100DD0007BE080E090E00E946F02C0E0D0E00E94E3
:100DE000D40360E081E00E94C50363E771E08DE316
:100DF00092E00E94830461E089E00E94C50314E14F
:100E0000C12CD12C76010E94CB02C60ED71EE81E43
:100E1000F91E60E070E0CB010E946F02115099F75B
:100E2000C701B60124E130E040E050E00E945C0AD6
:100E30008091350290913602A0913702B09138022C
:100E400079018A01E81AF90A0A0B1B0BC801B701DC
:100E50000E9413092091390230913A0240913B02DD
:100E600050913C020E9469086B017C014B015C01BE
:100E7000AC019B010E94350A6AE771E081111AC03A
:100E800026013701E89477F82FEF3FEF4FE75FE750
:100E9000C301B2010E94350A811127C02FEF3FEF35
:100EA0004FE75FE7C301B2010E9464081816ECF433
:100EB0006EE771E08DE392E00E94830466E871E0E2
:100EC0008DE392E00E94830468EB7BE080E090E099
:100ED0000E946F02209709F482CF0E94F6008823B7
:100EE00009F47DCF0E9400007ACF2FEF3FEF4FE74C
:100EF0005FE4C701B6010E94C30918161CF462E83A
:100F000071E0D8CF2FEF3FEF4FE75FECC701B6019D
:100F10000E94640887FDF3CF20E030E0A901C701FB
:100F2000B6010E94640887FF0CC041E06DE28DE3CA
:100F300092E00E946C0346015701B7FAB094B7F8EB
:100F4000B0942AE037ED43EA5BE3C501B4010E94A7
:100F5000F8074B015C010E94E2086B017C010E94D2
:100F600011099B01AC01C501B4010E94F7074B01B7
:100F70005C012AE0B701A6018DE392E00E94920491
:100F800041E06EE28DE392E00E946C0320E030E0ED
:100F900040E251E4C501B4010E94C8094B015C0163
:100FA0000E94E2086B01F12CE12C2AE0B701A601B6
:100FB0008DE392E00E949204C701B6010E941109DC
:100FC0009B01AC01C501B4010E94F70720E030E0AD
:100FD00040E251E40E94C8090E94E208AB0170E0BF
:100FE00060E02AE08DE392E00E94920467CF5058BF
:100FF000BB27AA270E940F080C9489090E947B092D
:1010000038F00E94820920F039F49F3F19F426F449
:101010000C9478090EF4E095E7FB0C947209E92F23
:101020000E949A0958F3BA17620773078407950755
:1010300020F079F4A6F50C94BC090EF4E0950B2E83
:10104000BA2FA02D0B01B90190010C01CA01A0011A
:101050001124FF27591B99F0593F50F4503E68F175
:101060001A16F040A22F232F342F4427585FF3CFB6
:10107000469537952795A795F0405395C9F77EF487
:101080001F16BA0B620B730B840BBAF09150A1F0D0
:10109000FF0FBB1F661F771F881FC2F70EC0BA0F56
:1010A000621F731F841F48F4879577956795B795DE
:1010B000F7959E3F08F0B0CF9395880F08F09927D9
:1010C000EE0F9795879508950E944E0908F481E0E8
:1010D00008950E947D080C9489090E94820958F0A5
:1010E0000E947B0940F029F45F3F29F00C947209BB
:1010F00051110C94BD090C9478090E949A0968F367
:101100009923B1F3552391F3951B550BBB27AA27C0
:1011100062177307840738F09F5F5F4F220F331FFA
:10112000441FAA1FA9F335D00E2E3AF0E0E832D0C2
:1011300091505040E695001CCAF72BD0FE2F29D0C5
:10114000660F771F881FBB1F261737074807AB0797
:10115000B0E809F0BB0B802DBF01FF2793585F4F0C
:101160003AF09E3F510578F00C9472090C94BD0939
:101170005F3FE4F3983ED4F3869577956795B795EE
:10118000F7959F5FC9F7880F911D9695879597F9F9
:101190000895E1E0660F771F881FBB1F6217730772
:1011A0008407BA0720F0621B730B840BBA0BEE1F87
:1011B00088F7E09508950E94E2086894B1110C94B4
:1011C000BD0908950E94A20988F09F5798F0B92F91
:1011D0009927B751B0F0E1F0660F771F881F991F6C
:1011E0001AF0BA95C9F714C0B13091F00E94BC0949
:1011F000B1E008950C94BC09672F782F8827B85F59
:1012000039F0B93FCCF3869577956795B395D9F7C3
:101210003EF490958095709561957F4F8F4F9F4FCD
:101220000895E89409C097FB3EF4909580957095D9
:1012300061957F4F8F4F9F4F9923A9F0F92F96E922
:10124000BB279395F695879577956795B795F11197
:10125000F8CFFAF4BB0F11F460FF1BC06F5F7F4F34
:101260008F4F9F4F16C0882311F096E911C0772346
:1012700021F09EE8872F762F05C0662371F096E84F
:10128000862F70E060E02AF09A95660F771F881F1E
:10129000DAF7880F9695879597F90895990F0008C2
:1012A000550FAA0BE0E8FEEF16161706E807F90738
:1012B000C0F012161306E407F50798F0621B730BD3
:1012C000840B950B39F40A2661F0232B242B252B54
:1012D00021F408950A2609F4A140A6958FEF811DF7
:1012E000811D089597F99F6780E870E060E0089598
:1012F0009FEF80EC089500240A941616170618062E
:101300000906089500240A94121613061406050609
:101310000895092E0394000C11F4882352F0BB0F9A
:1013200040F4BF2B11F460FF04C06F5F7F4F8F4FFD
:101330009F4F089557FD9058440F551F59F05F3F38
:1013400071F04795880F97FB991F61F09F3F79F0E7
:1013500087950895121613061406551FF2CF469569
:10136000F1DF08C0161617061806991FF1CF8695EB
:101370007105610508940895E894BB2766277727CF
:10138000CB0197F908950E944E0908F48FEF089554
:101390000E94DB090C9489090E947B0938F00E94A5
:1013A000820920F0952311F00C9472090C947809AD
:1013B00011240C94BD090E949A0970F3959FC1F302
:1013C000950F50E0551F629FF001729FBB27F00DF3
:1013D000B11D639FAA27F00DB11DAA1F649F662748
:1013E000B00DA11D661F829F2227B00DA11D621F97
:1013F000739FB00DA11D621F839FA00D611D221F51
:10140000749F3327A00D611D231F849F600D211D34
:10141000822F762F6A2F11249F5750409AF0F1F0B7
:1014200088234AF0EE0FFF1FBB1F661F771F881F20
:1014300091505040A9F79E3F510580F00C947209DD
:101440000C94BD095F3FE4F3983ED4F386957795FD
:101450006795B795F795E7959F5FC1F7FE2B880FC6
:10146000911D9695879597F908950E944E09880BCE
:10147000990B0895A1E21A2EAA1BBB1BFD010DC0FA
:10148000AA1FBB1FEE1FFF1FA217B307E407F50734
:1014900020F0A21BB30BE40BF50B661F771F881F10
:1014A000991F1A9469F760957095809590959B01A6
:1014B000AC01BD01CF010895052E97FB1EF40094E9
:1014C0000E94730A57FD07D00E943A0A07FC03D016
:1014D0004EF40C94730A50954095309521953F4FEA
:1014E0004F4F5F4F089590958095709561957F4F10
:1014F0008F4F9F4F0895EE0FFF1F0590F491E02D41
:1015000009940F931F93CF93DF938230910510F4CA
:1015100082E090E0E0915702F091580230E020E044
:10152000B0E0A0E0309799F42115310509F44AC0E4
:10153000281B390B24303105D8F58A819B81611530
:10154000710589F1FB0193838283FE0111C0408103
:1015500051810281138148175907E0F04817590754
:1015600099F4109761F012960C93129713961C93AE
:101570003296CF01DF91CF911F910F910895009383
:10158000570210935802F4CF2115310551F042173C
:10159000530738F0A901DB019A01BD01DF01F80111
:1015A000C1CFEF01F9CF9093580280935702CDCF6E
:1015B000FE01E20FF31F8193919322503109398389
:1015C0002883D7CF2091550230915602232B41F426
:1015D000209102013091030130935602209355026D
:1015E00020910001309101012115310541F42DB701
:1015F0003EB74091040150910501241B350BE09149
:101600005502F0915602E217F307A0F42E1B3F0B90
:101610002817390778F0AC014E5F5F4F2417350764
:1016200048F04E0F5F1F509356024093550281932E
:1016300091939FCFF0E0E0E09CCFCF93DF930097B2
:10164000E9F0FC01329713821282A0915702B09107
:101650005802ED0130E020E01097A1F420813181A3
:10166000820F931F20915502309156022817390797
:1016700009F061C0F0935602E0935502DF91CF91DB
:101680000895EA01CE17DF07E8F54A815B819E01E4
:1016900041155105B1F7E901FB83EA83499159915D
:1016A000C40FD51FEC17FD0761F48081918102966C
:1016B000840F951FE90199838883828193819B839D
:1016C0008A83F0E0E0E012968D919C911397009749
:1016D000B9F52D913C911197CD010296820F931F80
:1016E00020915502309156022817390739F6309764
:1016F00051F51092580210925702B0935602A093DF
:101700005502BCCFD383C28340815181840F951F82
:10171000C817D90761F44E5F5F4F88819981480FE0
:10172000591F518340838A819B8193838283211532
:10173000310509F0B0CFF0935802E09357029ECFE5
:10174000FD01DC01C0CF13821282D7CFF894FFCF06
:10175000000059028000000000002C018C00B9003C
:101760007901EA00C800DC0000000000A602DE04E7
:10177000000000007D048C00A302A2024C6563748B
:101780007572612064656C2076616C6F722064658F
:101790006C204144433A2020000D0A0042414C4154
:1017A0004E5A4100446573746172616E646F2E2EEF
:1017B0002E004C6973746F207061726120706573C4
:1017C0006172005065736F3A20006E616E00696E41
:0A17D00066006F76660020670000D7
:107E0000112484B714BE81FFF0D085E080938100F7
:107E100082E08093C00088E18093C10086E0809377
:107E2000C20080E18093C4008EE0C9D0259A86E02C
:107E300020E33CEF91E0309385002093840096BBD3
:107E4000B09BFECF1D9AA8958150A9F7CC24DD24C4
:107E500088248394B5E0AB2EA1E19A2EF3E0BF2EE7
:107E6000A2D0813461F49FD0082FAFD0023811F036
:107E7000013811F484E001C083E08DD089C08234E0
:107E800011F484E103C0853419F485E0A6D080C0E4
:107E9000853579F488D0E82EFF2485D0082F10E0AE
:107EA000102F00270E291F29000F111F8ED06801E7
:107EB0006FC0863521F484E090D080E0DECF843638
:107EC00009F040C070D06FD0082F6DD080E0C81688
:107ED00080E7D80618F4F601B7BEE895C0E0D1E017
:107EE00062D089930C17E1F7F0E0CF16F0E7DF06D8
:107EF00018F0F601B7BEE89568D007B600FCFDCFD4
:107F0000A601A0E0B1E02C9130E011968C91119780
:107F100090E0982F8827822B932B1296FA010C0160
:107F200087BEE89511244E5F5F4FF1E0A038BF0790
:107F300051F7F601A7BEE89507B600FCFDCF97BE46
:107F4000E89526C08437B1F42ED02DD0F82E2BD052
:107F50003CD0F601EF2C8F010F5F1F4F84911BD097
:107F6000EA94F801C1F70894C11CD11CFA94CF0C13
:107F7000D11C0EC0853739F428D08EE10CD085E9AC
:107F80000AD08FE07ACF813511F488E018D01DD067
:107F900080E101D065CF982F8091C00085FFFCCF94
:107FA0009093C60008958091C00087FFFCCF809118
:107FB000C00084FD01C0A8958091C6000895E0E648
:107FC000F0E098E1908380830895EDDF803219F02E
:107FD00088E0F5DFFFCF84E1DECF1F93182FE3DFCA
:107FE0001150E9F7F2DF1F91089580E0E8DFEE27F6
:047FF000FF270994CA
:027FFE00040479
:0400000300007E007B
:00000001FF
